0083014220999992014010100004+59167+006033FM-12+002599999V0200601N003019999999N999999999+00791+00111999999ADDAA106000091OD139901201999REMSYN04601422 16/// /0603 10079 20011 60001 333 91112=
0039014220999992014010101004+59167+006033FM-12+002599999V0200701N003019999999N999999999+00801+00121999999REMSYN03001422 46/// /0703 10080 20012=
0039014220999992014010102004+59167+006033FM-12+002599999V0200401N003019999999N999999999+00781+00191999999REMSYN03001422 46/// /0403 10078 20019=
0039014220999992014010103004+59167+006033FM-12+002599999V0200701N002019999999N999999999+00741+00171999999REMSYN03001422 46/// /0702 10074 20017=
0039014220999992014010104004+59167+006033FM-12+002599999V0200501N002019999999N999999999+00731+00201999999REMSYN03001422 46/// /0502 10073 20020=
0039014220999992014010105004+59167+006033FM-12+002599999V0200701N002019999999N999999999+00701+00191999999REMSYN03001422 46/// /0702 10070 20019=
0119014220999992014010106004+59167+006033FM-12+002599999V0200601N002019999999N999999999+00671+00201999999ADDAA112000091AA224001831KA1240N+00671OD139901001999REMSYN05801422 16/// /0602 10067 20020 60002 333 20067 70018 91110=
0039014220999992014010107004+59167+006033FM-12+002599999V0200601N002019999999N999999999+00621+00211999999REMSYN03001422 46/// /0602 10062 20021=
0039014220999992014010108004+59167+006033FM-12+002599999V0201101N002019999999N999999999+00571+00241999999REMSYN03001422 46/// /1102 10057 20024=
0039014220999992014010109004+59167+006033FM-12+002599999V0201401N001019999999N999999999+00481+00301999999REMSYN03001422 46/// /1401 10048 20030=
0039014220999992014010110004+59167+006033FM-12+002599999V0201701N002019999999N999999999+00451+00291999999REMSYN03001422 46/// /1702 10045 20029=
0039014220999992014010111004+59167+006033FM-12+002599999V0201301N003019999999N999999999+00491+00231999999REMSYN03001422 46/// /1303 10049 20023=
0083014220999992014010112004+59167+006033FM-12+002599999V0201101N004019999999N999999999+00541+00211999999ADDAA106003031OD139900801999REMSYN04601422 16/// /1104 10054 20021 60031 333 91108=